{
  "contractName": "ItemManager",
  "abi": [
    {
      "anonymous": false,
      "inputs": [
        {
          "indexed": false,
          "internalType": "uint256",
          "name": "_itemIndex",
          "type": "uint256"
        },
        {
          "indexed": false,
          "internalType": "uint256",
          "name": "_step",
          "type": "uint256"
        },
        {
          "indexed": false,
          "internalType": "address",
          "name": "_address",
          "type": "address"
        }
      ],
      "name": "SupplyChainStep",
      "type": "event"
    },
    {
      "inputs": [
        {
          "internalType": "uint256",
          "name": "",
          "type": "uint256"
        }
      ],
      "name": "items",
      "outputs": [
        {
          "internalType": "contract Item",
          "name": "_item",
          "type": "address"
        },
        {
          "internalType": "enum ItemManager.SupplyChainSteps",
          "name": "_step",
          "type": "uint8"
        },
        {
          "internalType": "string",
          "name": "_identifier",
          "type": "string"
        }
      ],
      "stateMutability": "view",
      "type": "function",
      "constant": true
    },
    {
      "inputs": [
        {
          "internalType": "string",
          "name": "_identifier",
          "type": "string"
        },
        {
          "internalType": "uint256",
          "name": "_priceInWei",
          "type": "uint256"
        }
      ],
      "name": "createItem",
      "outputs": [],
      "stateMutability": "nonpayable",
      "type": "function"
    },
    {
      "inputs": [
        {
          "internalType": "uint256",
          "name": "_index",
          "type": "uint256"
        }
      ],
      "name": "triggerPayment",
      "outputs": [],
      "stateMutability": "payable",
      "type": "function",
      "payable": true
    },
    {
      "inputs": [
        {
          "internalType": "uint256",
          "name": "_index",
          "type": "uint256"
        }
      ],
      "name": "triggerDelivery",
      "outputs": [],
      "stateMutability": "nonpayable",
      "type": "function"
    }
  ],
  "bytecode": "0x608060405234801561001057600080fd5b506117fb806100206000396000f3fe608060405260043610620000445760003560e01c8063800fb83f14620000495780638c5517421462000069578063bfb231d21462000097578063cd31831e14620000dd575b600080fd5b620000676004803603810190620000619190620009a0565b6200010b565b005b3480156200007657600080fd5b506200009560048036038101906200008f91906200093a565b620003c9565b005b348015620000a457600080fd5b50620000c36004803603810190620000bd9190620009a0565b6200056a565b604051620000d49392919062000b4c565b60405180910390f35b348015620000ea57600080fd5b50620001096004803603810190620001039190620009a0565b62000651565b005b600080600083815260200190815260200160002060000160009054906101000a900473ffffffffffffffffffffffffffffffffffffffff1690503373ffffffffffffffffffffffffffffffffffffffff168173ffffffffffffffffffffffffffffffffffffffff1614620001b6576040517f08c379a0000000000000000000000000000000000000000000000000000000008152600401620001ad9062000bb2565b60405180910390fd5b348173ffffffffffffffffffffffffffffffffffffffff16633c8da5886040518163ffffffff1660e01b815260040160206040518083038186803b158015620001fe57600080fd5b505afa15801562000213573d6000803e3d6000fd5b505050506040513d601f19601f82011682018060405250810190620002399190620009d2565b146200027c576040517f08c379a0000000000000000000000000000000000000000000000000000000008152600401620002739062000b90565b60405180910390fd5b6000600281111562000293576200029262000ea7565b5b600080600154815260200190815260200160002060000160149054906101000a900460ff166002811115620002cd57620002cc62000ea7565b5b1462000310576040517f08c379a0000000000000000000000000000000000000000000000000000000008152600401620003079062000bd4565b60405180910390fd5b600160008084815260200190815260200160002060000160146101000a81548160ff021916908360028111156200034c576200034b62000ea7565b5b02179055507fa4035636e99f06b7651a604c1019fa4e8779fe68ef27eeb74dff2de348f6199b8260008085815260200190815260200160002060000160149054906101000a900460ff166002811115620003ab57620003aa62000ea7565b5b83604051620003bd9392919062000bf6565b60405180910390a15050565b60003082600154604051620003de90620007d0565b620003ec9392919062000b0f565b604051809103906000f08015801562000409573d6000803e3d6000fd5b50905080600080600154815260200190815260200160002060000160006101000a81548173ffffffffffffffffffffffffffffffffffffffff021916908373ffffffffffffffffffffffffffffffffffffffff1602179055506000806000600154815260200190815260200160002060000160146101000a81548160ff02191690836002811115620004a0576200049f62000ea7565b5b02179055508260008060015481526020019081526020016000206001019080519060200190620004d2929190620007de565b507fa4035636e99f06b7651a604c1019fa4e8779fe68ef27eeb74dff2de348f6199b600154600080600154815260200190815260200160002060000160149054906101000a900460ff16600281111562000531576200053062000ea7565b5b83604051620005439392919062000bf6565b60405180910390a160016000815480929190620005609062000e2a565b9190505550505050565b60006020528060005260406000206000915090508060000160009054906101000a900473ffffffffffffffffffffffffffffffffffffffff16908060000160149054906101000a900460ff1690806001018054620005c89062000dbe565b80601f0160208091040260200160405190810160405280929190818152602001828054620005f69062000dbe565b8015620006475780601f106200061b5761010080835404028352916020019162000647565b820191906000526020600020905b8154815290600101906020018083116200062957829003601f168201915b5050505050905083565b6001600281111562000668576200066762000ea7565b5b60008083815260200190815260200160002060000160149054906101000a900460ff166002811115620006a0576200069f62000ea7565b5b14620006e3576040517f08c379a0000000000000000000000000000000000000000000000000000000008152600401620006da9062000bd4565b60405180910390fd5b600260008083815260200190815260200160002060000160146101000a81548160ff021916908360028111156200071f576200071e62000ea7565b5b02179055507fa4035636e99f06b7651a604c1019fa4e8779fe68ef27eeb74dff2de348f6199b8160008084815260200190815260200160002060000160149054906101000a900460ff1660028111156200077e576200077d62000ea7565b5b60008085815260200190815260200160002060000160009054906101000a900473ffffffffffffffffffffffffffffffffffffffff16604051620007c59392919062000bf6565b60405180910390a150565b610774806200105283390190565b828054620007ec9062000dbe565b90600052602060002090601f0160209004810192826200081057600085556200085c565b82601f106200082b57805160ff19168380011785556200085c565b828001600101855582156200085c579182015b828111156200085b5782518255916020019190600101906200083e565b5b5090506200086b91906200086f565b5090565b5b808211156200088a57600081600090555060010162000870565b5090565b6000620008a56200089f8462000c5c565b62000c33565b905082815260208101848484011115620008c457620008c362000f39565b5b620008d184828562000d79565b509392505050565b600082601f830112620008f157620008f062000f34565b5b8135620009038482602086016200088e565b91505092915050565b6000813590506200091d8162001037565b92915050565b600081519050620009348162001037565b92915050565b6000806040838503121562000954576200095362000f43565b5b600083013567ffffffffffffffff81111562000975576200097462000f3e565b5b6200098385828601620008d9565b925050602062000996858286016200090c565b9150509250929050565b600060208284031215620009b957620009b862000f43565b5b6000620009c9848285016200090c565b91505092915050565b600060208284031215620009eb57620009ea62000f43565b5b6000620009fb8482850162000923565b91505092915050565b62000a0f8162000cae565b82525050565b62000a208162000d01565b82525050565b62000a318162000d15565b82525050565b62000a428162000d29565b82525050565b600062000a558262000c92565b62000a61818562000c9d565b935062000a7381856020860162000d88565b62000a7e8162000f48565b840191505092915050565b600062000a9860128362000c9d565b915062000aa58262000f59565b602082019050919050565b600062000abf602b8362000c9d565b915062000acc8262000f82565b604082019050919050565b600062000ae660238362000c9d565b915062000af38262000fd1565b604082019050919050565b62000b098162000cf7565b82525050565b600060608201905062000b26600083018662000a15565b62000b35602083018562000afe565b62000b44604083018462000afe565b949350505050565b600060608201905062000b63600083018662000a26565b62000b72602083018562000a37565b818103604083015262000b86818462000a48565b9050949350505050565b6000602082019050818103600083015262000bab8162000a89565b9050919050565b6000602082019050818103600083015262000bcd8162000ab0565b9050919050565b6000602082019050818103600083015262000bef8162000ad7565b9050919050565b600060608201905062000c0d600083018662000afe565b62000c1c602083018562000afe565b62000c2b604083018462000a04565b949350505050565b600062000c3f62000c52565b905062000c4d828262000df4565b919050565b6000604051905090565b600067ffffffffffffffff82111562000c7a5762000c7962000f05565b5b62000c858262000f48565b9050602081019050919050565b600081519050919050565b600082825260208201905092915050565b600062000cbb8262000cd7565b9050919050565b600081905062000cd28262001020565b919050565b600073ffffffffffffffffffffffffffffffffffffffff82169050919050565b6000819050919050565b600062000d0e8262000d3d565b9050919050565b600062000d228262000d51565b9050919050565b600062000d368262000cc2565b9050919050565b600062000d4a8262000d65565b9050919050565b600062000d5e8262000d65565b9050919050565b600062000d728262000cd7565b9050919050565b82818337600083830152505050565b60005b8381101562000da857808201518184015260208101905062000d8b565b8381111562000db8576000848401525b50505050565b6000600282049050600182168062000dd757607f821691505b6020821081141562000dee5762000ded62000ed6565b5b50919050565b62000dff8262000f48565b810181811067ffffffffffffffff8211171562000e215762000e2062000f05565b5b80604052505050565b600062000e378262000cf7565b91507fffffffffffffffffffffffffffffffffffffffffffffffffffffffffffffffff82141562000e6d5762000e6c62000e78565b5b600182019050919050565b7f4e487b7100000000000000000000000000000000000000000000000000000000600052601160045260246000fd5b7f4e487b7100000000000000000000000000000000000000000000000000000000600052602160045260246000fd5b7f4e487b7100000000000000000000000000000000000000000000000000000000600052602260045260246000fd5b7f4e487b7100000000000000000000000000000000000000000000000000000000600052604160045260246000fd5b600080fd5b600080fd5b600080fd5b600080fd5b6000601f19601f8301169050919050565b7f4e6f742066756c6c792070616964207965740000000000000000000000000000600082015250565b7f4f6e6c79206974656d732061726520616c6c6f77656420746f2075706461746560008201527f207468656d73656c766573000000000000000000000000000000000000000000602082015250565b7f4974656d206973206675727468657220696e2074686520737570706c7920636860008201527f61696e0000000000000000000000000000000000000000000000000000000000602082015250565b6003811062001034576200103362000ea7565b5b50565b620010428162000cf7565b81146200104e57600080fd5b5056fe608060405234801561001057600080fd5b50604051610774380380610774833981810160405281019061003291906100b3565b816000819055508060028190555082600360006101000a81548173ffffffffffffffffffffffffffffffffffffffff021916908373ffffffffffffffffffffffffffffffffffffffff160217905550505050610187565b60008151905061009881610159565b92915050565b6000815190506100ad81610170565b92915050565b6000806000606084860312156100cc576100cb610154565b5b60006100da86828701610089565b93505060206100eb8682870161009e565b92505060406100fc8682870161009e565b9150509250925092565b60006101118261012a565b9050919050565b600061012382610106565b9050919050565b600073ffffffffffffffffffffffffffffffffffffffff82169050919050565b6000819050919050565b600080fd5b61016281610118565b811461016d57600080fd5b50565b6101798161014a565b811461018457600080fd5b50565b6105de806101966000396000f3fe6080604052600436106100385760003560e01c80632986c0e5146102505780633c8da5881461027b57806383d12eef146102a657610241565b36610241576000543414610081576040517f08c379a0000000000000000000000000000000000000000000000000000000008152600401610078906103c3565b60405180910390fd5b6000600154146100c6576040517f08c379a00000000000000000000000000000000000000000000000000000000081526004016100bd906103a3565b60405180910390fd5b34600160008282546100d89190610445565b925050819055506000600360009054906101000a900473ffffffffffffffffffffffffffffffffffffffff1673ffffffffffffffffffffffffffffffffffffffff163460025460405160240161012e9190610403565b6040516020818303038152906040527f800fb83f000000000000000000000000000000000000000000000000000000007bffffffffffffffffffffffffffffffffffffffffffffffffffffffff19166020820180517bffffffffffffffffffffffffffffffffffffffffffffffffffffffff83818316178352505050506040516101b8919061038c565b60006040518083038185875af1925050503d80600081146101f5576040519150601f19603f3d011682016040523d82523d6000602084013e6101fa565b606091505b505090508061023e576040517f08c379a0000000000000000000000000000000000000000000000000000000008152600401610235906103e3565b60405180910390fd5b50005b34801561024d57600080fd5b50005b34801561025c57600080fd5b506102656102d1565b6040516102729190610403565b60405180910390f35b34801561028757600080fd5b506102906102d7565b60405161029d9190610403565b60405180910390f35b3480156102b257600080fd5b506102bb6102dd565b6040516102c89190610403565b60405180910390f35b60025481565b60005481565b60015481565b60006102ee8261041e565b6102f88185610429565b93506103088185602086016104a5565b80840191505092915050565b6000610321601583610434565b915061032c82610507565b602082019050919050565b6000610344602183610434565b915061034f82610530565b604082019050919050565b6000610367601583610434565b91506103728261057f565b602082019050919050565b6103868161049b565b82525050565b600061039882846102e3565b915081905092915050565b600060208201905081810360008301526103bc81610314565b9050919050565b600060208201905081810360008301526103dc81610337565b9050919050565b600060208201905081810360008301526103fc8161035a565b9050919050565b6000602082019050610418600083018461037d565b92915050565b600081519050919050565b600081905092915050565b600082825260208201905092915050565b60006104508261049b565b915061045b8361049b565b9250827fffffffffffffffffffffffffffffffffffffffffffffffffffffffffffffffff038211156104905761048f6104d8565b5b828201905092915050565b6000819050919050565b60005b838110156104c35780820151818401526020810190506104a8565b838111156104d2576000848401525b50505050565b7f4e487b7100000000000000000000000000000000000000000000000000000000600052601160045260246000fd5b7f4974656d20697320616c72656164792070616964210000000000000000000000600082015250565b7f576520646f6e277420737570706f7274207061727469616c207061796d656e7460008201527f7300000000000000000000000000000000000000000000000000000000000000602082015250565b7f44656c697665727920646964206e6f7420776f726b000000000000000000000060008201525056fea2646970667358221220860bef27c3790061df475441d18c9789c2cd14886413ac945216e15be709371764736f6c63430008070033a264697066735822122023238c23762ab8a92614cfc415f59e6d71293cae9794139e8e493b3470d145dd64736f6c63430008070033",
  "immutableReferences": {},
  "source": "pragma solidity ^0.8.4;\nimport \"./Item.sol\";\n\ncontract ItemManager {\n    \n    struct S_Item {\n        Item _item;\n        ItemManager.SupplyChainSteps _step;\n        string _identifier;\n    }\n    \n    mapping(uint => S_Item) public items;\n    uint index;\n    \n    enum SupplyChainSteps {Created, Paid, Delivered}\n    \n    event SupplyChainStep(uint _itemIndex, uint _step, address _address);\n    \n    function createItem(string memory _identifier, uint _priceInWei) public {\n        Item item = new Item(this, _priceInWei, index);\n        items[index]._item = item;\n        items[index]._step = SupplyChainSteps.Created;\n        items[index]._identifier = _identifier;\n        emit SupplyChainStep(index, uint(items[index]._step), address(item));\n        index++;\n    }\n    \n    function triggerPayment(uint _index) public payable {\n        Item item = items[_index]._item;\n        require(address(item) == msg.sender, \"Only items are allowed to update themselves\");    \n        require(item.priceInWei() == msg.value, \"Not fully paid yet\");\n        require(items[index]._step == SupplyChainSteps.Created, \"Item is further in the supply chain\");\n        items[_index]._step = SupplyChainSteps.Paid;\n        emit SupplyChainStep(_index, uint(items[_index]._step), address(item));\n    }\n\n    function triggerDelivery(uint _index) public {\n        require(items[_index]._step == SupplyChainSteps.Paid, \"Item is further in the supply chain\");\n        items[_index]._step = SupplyChainSteps.Delivered;\n        emit SupplyChainStep(_index, uint(items[_index]._step), address(items[_index]._item));\n    }\n}",
  "sourcePath": "/home/phd/Documents/Projects/ETH_blockchain/supply_chain/contracts/ItemManager.sol",
  "compiler": {
    "name": "solc",
    "version": "0.8.7+commit.e28d00a7.Emscripten.clang"
  },
  "schemaVersion": "3.4.3",
  "updatedAt": "2021-09-01T20:03:31.830Z",
  "networkType": "ethereum",
  "devdoc": {
    "kind": "dev",
    "methods": {},
    "version": 1
  },
  "userdoc": {
    "kind": "user",
    "methods": {},
    "version": 1
  }
}